:020000040800F2
:1000000088060020D1010008D9010008DB010008A2
:10001000DD010008DF010008E10100080000000028
:10002000000000000000000000000000E3010008E4
:10003000E501000800000000E70100086D06000867
:10004000EB010008EB010008EB010008EB010008E0
:10005000EB010008EB010008EB010008EB010008D0
:10006000EB010008EB010008EB010008EB010008C0
:10007000EB010008EB010008EB0100088D0200080D
:10008000EB010008EB010008EB0100080000000094
:10009000000000000000000000000000EB0100086C
:1000A000EB010008EB010008EB010008EB01000880
:1000B000EB010008EB010008EB010008EB01000870
:1000C000EB010008EB010008EB010008EB01000860
:1000D000EB010008D90700089D080008EB010008A3
:1000E000EB010008EB010008EB010008EB01000840
:1000F000EB010008EB010008000000000000000018
:100100000000000000000000EB010008EB01000807
:10011000EB010008EB010008790700088D070008D3
:10012000EB010008EB010008EB010008EB010008FF
:10013000EB01000800F002F800F03AF80AA090E89D
:10014000000C82448344AAF10107DA4501D100F092
:100150002FF8AFF2090EBAE80F0013F0010F18BF25
:10016000FB1A43F0010318476C0800008C080000DC
:10017000103A24BF78C878C1FAD8520724BF30C8D3
:1001800030C144BF04680C607047000000230024A5
:1001900000250026103A28BF78C1FBD8520728BF97
:1001A00030C148BF0B6070471FB51FBD10B510BDF3
:1001B00000F031F81146FFF7F7FF00F083FB00F085
:1001C0004FF803B4FFF7F2FF03BC00F057F800004C
:1001D0000948804709480047FEE7FEE7FEE7FEE7DB
:1001E000FEE7FEE7FEE7FEE7FEE7FEE70448054917
:1001F000054A064B704700001D070008350100083E
:100200008800002088060020880200208802002044
:10021000704770477047754600F02CF8AE460500F1
:100220006946534620F00700854618B020B5FFF711
:10023000DDFFBDE820404FF000064FF000074FF013
:1002400000084FF0000B21F00701AC46ACE8C009F4
:10025000ACE8C009ACE8C009ACE8C0098D467047FD
:1002600010B50446AFF300802046BDE81040FFF70C
:10027000A8BF000000487047240000200149182052
:10028000ABBEFEE7260002007047000010B50F4825
:10029000006800F4003040B10C48406840F4003081
:1002A0000A49486001200A4908700848006800F4BB
:1002B000002048B10548406840F4003003494860D8
:1002C0000421044800F015F810BD000000000240B1
:1002D00007000020000C014002469068084008B169
:1002E000012070470020FCE7026942EA01420261F6
:1002F000704702690A4302617047000010B51B484D
:10030000406940F0010019494861194819490866D7
:10031000194848660820C8650846806D20F020000E
:1003200088650846806D20F0400088650846806D2D
:1003300020F4407088650846806D20F44060886530
:100340000846806D20F0100088650846806D40F0FA
:10035000800088650F2000F016F90548103000680D
:1003600040F0400002491031086010BD001002400A
:1003700004380140000002401B0000201948406979
:1003800040F001001749486117481849C8641848E7
:100390000865112088640846406C20F020004864FD
:1003A0000846406C20F0400048640846406C20F449
:1003B000407048640846406C20F440604864084639
:1003C000406C40F0100048640846406C40F08000EB
:1003D000486405481030006840F080000249103140
:1003E00008607047001002400438014000000240DD
:1003F0000900002010B51348C06940F010001149F1
:10040000C8611148006840F080000F49086045F657
:10041000BF50886240F2F310C8620846006940F09D
:10042000010008610846C06840F00100C86036203D
:1004300000F09EF80448006840F00100024908609E
:1004400010BD0000001002400010004010B516481A
:10045000C06940F020001449C8611448006840F0A9
:1004600080001249086045F6BF50104928310860E5
:1004700040F2E730091D08600C481030006840F079
:1004800001000A4910310860081F006840F00100AF
:10049000091F0860372000F06BF80448006840F03E
:1004A00001000249086010BD001002400014004025
:1004B0002C48806940F008002A4988610846806914
:1004C00040F0100088612848006820F00C002649A0
:1004D00008600846006840F00100086008460068AF
:1004E00020F0020008600846006820F0C0000860A4
:1004F0000846006840F0100008600846006820F0D8
:10050000200008600846006820F440600860084643
:10051000006840F4807008600846006820F40070AD
:1005200008601248006820F440001049086008463E
:10053000006840F4801008600846006820F400104D
:1005400008600846006820F44020086008460068FB
:1005500040F4803008600846006820F400300860ED
:100560007047000000100240000C014000100140E4
:1005700000F01F02012191404209920002F1E022A5
:10058000C2F80011704700F01F020121914042099A
:10059000920002F1E022C2F800117047274800687B
:1005A00040F001002549086000BF2448006800F0C1
:1005B00002000028F9D021484068204948600846D8
:1005C000406848600846406848600846406820F433
:1005D000701048600846406820F480304860084643
:1005E000406820F4003048600846406820F48030BD
:1005F00048600846406840F480104860084600683B
:1006000040F08070086000BF0C48006800F0007087
:100610000028F9D00948406820F0030007494860E5
:100620000846406840F00200486000BF0348406848
:1006300000F00C000828F9D17047000000100240BB
:100640000948806D20F00100074988650820C865C9
:100650000846406840F4003048600846806D40F02D
:1006600001008865704700000000024002480088D1
:10067000401C0149088070470400002030B500216B
:10068000002000220023204C646804F00C0121B1FA
:10069000042906D0082925D107E01C4C1C4D2C60EC
:1006A00024E01A4C1A4D2C6020E0174C646804F4C6
:1006B0007010154C646804F48032022404EB9040FE
:1006C00022B9144C4443124D2C600AE00E4CE46AEB
:1006D00004F00F04631C0D4CB4FBF3F444430C4DC5
:1006E0002C6003E0094C0A4D2C6000BF00BF064C93
:1006F0006468C4F30314084D295D054C2468CC409C
:10070000034D2C6030BD00000010024000127A0042
:100710000000002000093D00BC09000812480068E4
:1007200040F0010010490860084640680F49084041
:100730000D494860084600680D4908400A490860AC
:100740000846006820F4802008600846406820F4CD
:10075000FE0048604FF41F0088600020C862C80394
:100760000449086070470000001002400000FFF8D4
:10077000FFFFF6FE08ED00E00348006920F00100ED
:1007800001490861704700000010004003480068FC
:1007900020F001000149086070470000101400407B
:1007A00000BF0549096801F040010029F9D002495C
:1007B000091D0860704700000038014010B502466E
:1007C000002305E019465C1CE3B2505CFFF7E8FF2C
:1007D000D05C0028F6D110BD0748006800F020006A
:1007E00040B10548006820F020000349086001205E
:1007F00002490870704700000038014006000020E0
:1008000010B52348806940F00400214988610846FA
:10081000806940F4804088610846806940F00100AA
:1008200088611C48006840F030001A49086008469A
:10083000006820F0400008600846006840F0800032
:1008400008600846006820F44070086008460068A8
:1008500040F4806008600846006820F4006008608A
:1008600040F6C4100C490860081D006840F00C00F8
:10087000091D08600846006840F4005008600846FA
:10088000006840F0200008602520FFF77CFE10BDC6
:100890000010024004080140083801400748006881
:1008A00000F0200040B10548006820F02000034916
:1008B00008600120024908707047000000440040B1
:1008C00008000020FFF76AFEFFF7D8FE2E480068F8
:1008D0004FF47A72B0FBF2F1481EB0F1807F00D382
:1008E0001BE0481E4FF0E022506150170F220028F5
:1008F00007DA13071D0E254B00F00F04241F1D55AA
:1009000003E013071C0E224B1C5400BF00204FF0C5
:10091000E02290610720106100BFFFF7C9FDFFF7DB
:1009200069FDFFF793FDFFF76BFFFFF727FDFFF76B
:10093000E5FC28E017480078012814D1002015496B
:100940000870FFF77DFE14480078302803D101219C
:100950001248FFF7C9FC10480078312803D1012163
:100960000E48FFF7C6FC08210D48FFF7B5FC10B98B
:100970000CA0FFF723FF04210948FFF7ADFC10B9D5
:100980000BA0FFF71BFFD5E70000002018ED00E0EB
:1009900000E400E0070000201B000020000C0140E4
:1009A00000100140425554544F4E5F33200A0D0051
:1009B000425554544F4E5F32200A0D000000000093
:1009C00000000000010203040607080900000000FF
:1009D00001020304F40900080000002024000000C4
:1009E00070010008180A00082400002064060000B6
:1009F0008C01000800366E010000000000492061F3
:100A00006D20737570657220444D41210D0A000000
:080A10000000000000000000DE
:0400000508000135B9
:00000001FF
